{
  "_format": "hh-sol-artifact-1",
  "contractName": "Base",
  "sourceName": "contracts/Base.sol",
  "abi": [
    {
      "anonymous": false,
      "inputs": [
        {
          "indexed": true,
          "internalType": "address",
          "name": "_eventOwner",
          "type": "address"
        },
        {
          "indexed": false,
          "internalType": "string",
          "name": "_eventName",
          "type": "string"
        },
        {
          "indexed": false,
          "internalType": "uint256",
          "name": "_ticketsSupplyCount",
          "type": "uint256"
        }
      ],
      "name": "EventCreated",
      "type": "event"
    },
    {
      "anonymous": false,
      "inputs": [
        {
          "indexed": true,
          "internalType": "address",
          "name": "_eventAddress",
          "type": "address"
        },
        {
          "indexed": true,
          "internalType": "uint256",
          "name": "_ticketId",
          "type": "uint256"
        }
      ],
      "name": "EventTicketBought",
      "type": "event"
    },
    {
      "inputs": [
        {
          "internalType": "string",
          "name": "name",
          "type": "string"
        },
        {
          "internalType": "string",
          "name": "shortName",
          "type": "string"
        },
        {
          "internalType": "uint256",
          "name": "ticketPriceInit",
          "type": "uint256"
        },
        {
          "internalType": "uint256",
          "name": "maxTicketSellPriceInit",
          "type": "uint256"
        },
        {
          "internalType": "uint256",
          "name": "maxTicketsSupplyInit",
          "type": "uint256"
        }
      ],
      "name": "createEvent",
      "outputs": [],
      "stateMutability": "payable",
      "type": "function"
    },
    {
      "inputs": [],
      "name": "eventRegisterFee",
      "outputs": [
        {
          "internalType": "uint256",
          "name": "",
          "type": "uint256"
        }
      ],
      "stateMutability": "view",
      "type": "function"
    },
    {
      "inputs": [
        {
          "internalType": "string",
          "name": "",
          "type": "string"
        }
      ],
      "name": "events",
      "outputs": [
        {
          "internalType": "string",
          "name": "name",
          "type": "string"
        },
        {
          "internalType": "uint256",
          "name": "ticketsSupplyCount",
          "type": "uint256"
        },
        {
          "internalType": "uint256",
          "name": "ticketPrice",
          "type": "uint256"
        }
      ],
      "stateMutability": "view",
      "type": "function"
    },
    {
      "inputs": [],
      "name": "getBestAssetToPayWith",
      "outputs": [
        {
          "internalType": "uint8",
          "name": "",
          "type": "uint8"
        }
      ],
      "stateMutability": "pure",
      "type": "function"
    }
  ],
  "bytecode": "0x608060405260405161001090610089565b604051809103906000f08015801561002c573d6000803e3d6000fd5b506000806101000a81548173ffffffffffffffffffffffffffffffffffffffff021916908373ffffffffffffffffffffffffffffffffffffffff16021790555066038d7ea4c6800060015534801561008357600080fd5b50610096565b6105ab806145d983390190565b614534806100a56000396000f3fe608060405260043610620000445760003560e01c80633c2fc56c14620000495780639284323214620000695780639673d6a31462000099578063f718f4bc14620000df575b600080fd5b6200006760048036038101906200006191906200056f565b6200010f565b005b3480156200007657600080fd5b5062000081620002d1565b60405162000090919062000653565b60405180910390f35b348015620000a657600080fd5b50620000c56004803603810190620000bf919062000670565b620002da565b604051620000d6939291906200075b565b60405180910390f35b348015620000ec57600080fd5b50620000f7620003aa565b6040516200010691906200079f565b60405180910390f35b60015434101562000157576040517f08c379a00000000000000000000000000000000000000000000000000000000081526004016200014e906200080c565b60405180910390fd5b600085858585856040516200016c90620003b0565b6200017c9594939291906200082e565b604051809103906000f08015801562000199573d6000803e3d6000fd5b509050604051806060016040528087815260200183815260200185815250600287604051620001c99190620008db565b90815260200160405180910390206000820151816000019081620001ee919062000b2a565b5060208201518160010155604082015181600201559050508073ffffffffffffffffffffffffffffffffffffffff1663893d20e86040518163ffffffff1660e01b8152600401602060405180830381865afa15801562000252573d6000803e3d6000fd5b505050506040513d601f19601f8201168201806040525081019062000278919062000c76565b73ffffffffffffffffffffffffffffffffffffffff167f84fca91db96bf2ac4269fb42dda353d5a1c4d6dc385dc06d8478e935211637318784604051620002c192919062000ca8565b60405180910390a2505050505050565b60006002905090565b600281805160208101820180518482526020830160208501208183528095505050505050600091509050806000018054620003159062000923565b80601f0160208091040260200160405190810160405280929190818152602001828054620003439062000923565b8015620003945780601f10620003685761010080835404028352916020019162000394565b820191906000526020600020905b8154815290600101906020018083116200037657829003601f168201915b5050505050908060010154908060020154905083565b60015481565b6138228062000cdd83390190565b6000604051905090565b600080fd5b600080fd5b600080fd5b600080fd5b6000601f19601f8301169050919050565b7f4e487b7100000000000000000000000000000000000000000000000000000000600052604160045260246000fd5b6200042782620003dc565b810181811067ffffffffffffffff82111715620004495762000448620003ed565b5b80604052505050565b60006200045e620003be565b90506200046c82826200041c565b919050565b600067ffffffffffffffff8211156200048f576200048e620003ed565b5b6200049a82620003dc565b9050602081019050919050565b82818337600083830152505050565b6000620004cd620004c78462000471565b62000452565b905082815260208101848484011115620004ec57620004eb620003d7565b5b620004f9848285620004a7565b509392505050565b600082601f830112620005195762000518620003d2565b5b81356200052b848260208601620004b6565b91505092915050565b6000819050919050565b620005498162000534565b81146200055557600080fd5b50565b60008135905062000569816200053e565b92915050565b600080600080600060a086880312156200058e576200058d620003c8565b5b600086013567ffffffffffffffff811115620005af57620005ae620003cd565b5b620005bd8882890162000501565b955050602086013567ffffffffffffffff811115620005e157620005e0620003cd565b5b620005ef8882890162000501565b9450506040620006028882890162000558565b9350506060620006158882890162000558565b9250506080620006288882890162000558565b9150509295509295909350565b600060ff82169050919050565b6200064d8162000635565b82525050565b60006020820190506200066a600083018462000642565b92915050565b600060208284031215620006895762000688620003c8565b5b600082013567ffffffffffffffff811115620006aa57620006a9620003cd565b5b620006b88482850162000501565b91505092915050565b600081519050919050565b600082825260208201905092915050565b60005b83811015620006fd578082015181840152602081019050620006e0565b60008484015250505050565b60006200071682620006c1565b620007228185620006cc565b935062000734818560208601620006dd565b6200073f81620003dc565b840191505092915050565b620007558162000534565b82525050565b6000606082019050818103600083015262000777818662000709565b90506200078860208301856200074a565b6200079760408301846200074a565b949350505050565b6000602082019050620007b660008301846200074a565b92915050565b7f4c4f575f4556454e545f52454749535445525f46454500000000000000000000600082015250565b6000620007f4601683620006cc565b91506200080182620007bc565b602082019050919050565b600060208201905081810360008301526200082781620007e5565b9050919050565b600060a08201905081810360008301526200084a818862000709565b9050818103602083015262000860818762000709565b90506200087160408301866200074a565b6200088060608301856200074a565b6200088f60808301846200074a565b9695505050505050565b600081905092915050565b6000620008b182620006c1565b620008bd818562000899565b9350620008cf818560208601620006dd565b80840191505092915050565b6000620008e98284620008a4565b915081905092915050565b7f4e487b7100000000000000000000000000000000000000000000000000000000600052602260045260246000fd5b600060028204905060018216806200093c57607f821691505b602082108103620009525762000951620008f4565b5b50919050565b60008190508160005260206000209050919050565b60006020601f8301049050919050565b600082821b905092915050565b600060088302620009bc7fffffffffffffffffffffffffffffffffffffffffffffffffffffffffffffffff826200097d565b620009c886836200097d565b95508019841693508086168417925050509392505050565b6000819050919050565b600062000a0b62000a05620009ff8462000534565b620009e0565b62000534565b9050919050565b6000819050919050565b62000a2783620009ea565b62000a3f62000a368262000a12565b8484546200098a565b825550505050565b600090565b62000a5662000a47565b62000a6381848462000a1c565b505050565b5b8181101562000a8b5762000a7f60008262000a4c565b60018101905062000a69565b5050565b601f82111562000ada5762000aa48162000958565b62000aaf846200096d565b8101602085101562000abf578190505b62000ad762000ace856200096d565b83018262000a68565b50505b505050565b600082821c905092915050565b600062000aff6000198460080262000adf565b1980831691505092915050565b600062000b1a838362000aec565b9150826002028217905092915050565b62000b3582620006c1565b67ffffffffffffffff81111562000b515762000b50620003ed565b5b62000b5d825462000923565b62000b6a82828562000a8f565b600060209050601f83116001811462000ba2576000841562000b8d578287015190505b62000b99858262000b0c565b86555062000c09565b601f19841662000bb28662000958565b60005b8281101562000bdc5784890151825560018201915060208501945060208101905062000bb5565b8683101562000bfc578489015162000bf8601f89168262000aec565b8355505b6001600288020188555050505b505050505050565b600073ffffffffffffffffffffffffffffffffffffffff82169050919050565b600062000c3e8262000c11565b9050919050565b62000c508162000c31565b811462000c5c57600080fd5b50565b60008151905062000c708162000c45565b92915050565b60006020828403121562000c8f5762000c8e620003c8565b5b600062000c9f8482850162000c5f565b91505092915050565b6000604082019050818103600083015262000cc4818562000709565b905062000cd560208301846200074a565b939250505056fe608060405260006009556000600a556000600e60006101000a81548160ff0219169083151502179055503480156200003657600080fd5b50604051620038223803806200382283398181016040528101906200005c9190620003a6565b848481600090816200006f9190620006ad565b508060019081620000819190620006ad565b505050620000a462000098620000f460201b60201c565b620000fc60201b60201c565b84600b9081620000b59190620006ad565b508260098190555081600a8190555080600c8190555080600d81905550620000e96008620001c260201b62000f4c1760201c565b505050505062000794565b600033905090565b6000600760009054906101000a900473ffffffffffffffffffffffffffffffffffffffff16905081600760006101000a81548173ffffffffffffffffffffffffffffffffffffffff021916908373ffffffffffffffffffffffffffffffffffffffff1602179055508173ffffffffffffffffffffffffffffffffffffffff168173ffffffffffffffffffffffffffffffffffffffff167f8be0079c531659141344cd1fd0a4f28419497f9722a3daafe3b4186f6b6457e060405160405180910390a35050565b6001816000016000828254019250508190555050565b6000604051905090565b600080fd5b600080fd5b600080fd5b600080fd5b6000601f19601f8301169050919050565b7f4e487b7100000000000000000000000000000000000000000000000000000000600052604160045260246000fd5b6200024182620001f6565b810181811067ffffffffffffffff8211171562000263576200026262000207565b5b80604052505050565b600062000278620001d8565b905062000286828262000236565b919050565b600067ffffffffffffffff821115620002a957620002a862000207565b5b620002b482620001f6565b9050602081019050919050565b60005b83811015620002e1578082015181840152602081019050620002c4565b60008484015250505050565b600062000304620002fe846200028b565b6200026c565b905082815260208101848484011115620003235762000322620001f1565b5b62000330848285620002c1565b509392505050565b600082601f83011262000350576200034f620001ec565b5b815162000362848260208601620002ed565b91505092915050565b6000819050919050565b62000380816200036b565b81146200038c57600080fd5b50565b600081519050620003a08162000375565b92915050565b600080600080600060a08688031215620003c557620003c4620001e2565b5b600086015167ffffffffffffffff811115620003e657620003e5620001e7565b5b620003f48882890162000338565b955050602086015167ffffffffffffffff811115620004185762000417620001e7565b5b620004268882890162000338565b945050604062000439888289016200038f565b93505060606200044c888289016200038f565b92505060806200045f888289016200038f565b9150509295509295909350565b600081519050919050565b7f4e487b7100000000000000000000000000000000000000000000000000000000600052602260045260246000fd5b60006002820490506001821680620004bf57607f821691505b602082108103620004d557620004d462000477565b5b50919050565b60008190508160005260206000209050919050565b60006020601f8301049050919050565b600082821b905092915050565b6000600883026200053f7fffffffffffffffffffffffffffffffffffffffffffffffffffffffffffffffff8262000500565b6200054b868362000500565b95508019841693508086168417925050509392505050565b6000819050919050565b60006200058e6200058862000582846200036b565b62000563565b6200036b565b9050919050565b6000819050919050565b620005aa836200056d565b620005c2620005b98262000595565b8484546200050d565b825550505050565b600090565b620005d9620005ca565b620005e68184846200059f565b505050565b5b818110156200060e5762000602600082620005cf565b600181019050620005ec565b5050565b601f8211156200065d576200062781620004db565b6200063284620004f0565b8101602085101562000642578190505b6200065a6200065185620004f0565b830182620005eb565b50505b505050565b600082821c905092915050565b6000620006826000198460080262000662565b1980831691505092915050565b60006200069d83836200066f565b9150826002028217905092915050565b620006b8826200046c565b67ffffffffffffffff811115620006d457620006d362000207565b5b620006e08254620004a6565b620006ed82828562000612565b600060209050601f83116001811462000725576000841562000710578287015190505b6200071c85826200068f565b8655506200078c565b601f1984166200073586620004db565b60005b828110156200075f5784890151825560018201915060208501945060208101905062000738565b868310156200077f57848901516200077b601f8916826200066f565b8355505b6001600288020188555050505b505050505050565b61307e80620007a46000396000f3fe60806040526004361061014b5760003560e01c80637ee25484116100b6578063a22cb4651161006f578063a22cb46514610473578063b01a8bb21461049c578063b88d4fde146104c7578063c87b56dd146104f0578063e985e9c51461052d578063f2fde38b1461056a5761014b565b80637ee25484146103735780638043c9c01461039c5780638755f921146103c7578063893d20e8146103f25780638da5cb5b1461041d57806395d89b41146104485761014b565b806323b872dd1161010857806323b872dd1461026557806342842e0e1461028e57806345b0b88b146102b75780636352211e146102e257806370a082311461031f578063715018a61461035c5761014b565b806301ffc9a714610150578063023697f01461018d57806306fdde03146101a9578063081812fc146101d4578063095ea7b3146102115780631209b1f61461023a575b600080fd5b34801561015c57600080fd5b5061017760048036038101906101729190611fb1565b610593565b6040516101849190611ff9565b60405180910390f35b6101a760048036038101906101a2919061204d565b6105f4565b005b3480156101b557600080fd5b506101be610748565b6040516101cb919061210a565b60405180910390f35b3480156101e057600080fd5b506101fb60048036038101906101f69190612162565b6107da565b60405161020891906121d0565b60405180910390f35b34801561021d57600080fd5b5061023860048036038101906102339190612217565b610820565b005b34801561024657600080fd5b5061024f610937565b60405161025c9190612266565b60405180910390f35b34801561027157600080fd5b5061028c60048036038101906102879190612281565b61093d565b005b34801561029a57600080fd5b506102b560048036038101906102b09190612281565b61099d565b005b3480156102c357600080fd5b506102cc6109bd565b6040516102d99190611ff9565b60405180910390f35b3480156102ee57600080fd5b5061030960048036038101906103049190612162565b6109d0565b60405161031691906121d0565b60405180910390f35b34801561032b57600080fd5b50610346600480360381019061034191906122d4565b610a56565b6040516103539190612266565b60405180910390f35b34801561036857600080fd5b50610371610b0d565b005b34801561037f57600080fd5b5061039a6004803603810190610395919061232d565b610b21565b005b3480156103a857600080fd5b506103b1610b46565b6040516103be919061210a565b60405180910390f35b3480156103d357600080fd5b506103dc610bd4565b6040516103e99190612266565b60405180910390f35b3480156103fe57600080fd5b50610407610bda565b60405161041491906121d0565b60405180910390f35b34801561042957600080fd5b50610432610be9565b60405161043f91906121d0565b60405180910390f35b34801561045457600080fd5b5061045d610c13565b60405161046a919061210a565b60405180910390f35b34801561047f57600080fd5b5061049a6004803603810190610495919061235a565b610ca5565b005b3480156104a857600080fd5b506104b1610cbb565b6040516104be9190612266565b60405180910390f35b3480156104d357600080fd5b506104ee60048036038101906104e991906124cf565b610cc1565b005b3480156104fc57600080fd5b5061051760048036038101906105129190612162565b610d23565b604051610524919061210a565b60405180910390f35b34801561053957600080fd5b50610554600480360381019061054f9190612552565b610e35565b6040516105619190611ff9565b60405180910390f35b34801561057657600080fd5b50610591600480360381019061058c91906122d4565b610ec9565b005b6000634906490660e01b7bffffffffffffffffffffffffffffffffffffffffffffffffffffffff1916827bffffffffffffffffffffffffffffffffffffffffffffffffffffffff191614806105ed57506105ec82610f62565b5b9050919050565b600e60009054906101000a900460ff1615610644576040517f08c379a000000000000000000000000000000000000000000000000000000000815260040161063b90612604565b60405180910390fd5b8060ff166009546106559190612653565b8160ff16346106649190612653565b146106a4576040517f08c379a000000000000000000000000000000000000000000000000000000000815260040161069b906126e1565b60405180910390fd5b600d548160ff1611156106ec576040517f08c379a00000000000000000000000000000000000000000000000000000000081526004016106e39061274d565b60405180910390fd5b6000600190505b8160ff168160ff16116107445761070d338260ff16611044565b6001600d6000828254610720919061276d565b925050819055506107316008610f4c565b808061073c906127a1565b9150506106f3565b5050565b606060008054610757906127f9565b80601f0160208091040260200160405190810160405280929190818152602001828054610783906127f9565b80156107d05780601f106107a5576101008083540402835291602001916107d0565b820191906000526020600020905b8154815290600101906020018083116107b357829003601f168201915b5050505050905090565b60006107e582611261565b6004600083815260200190815260200160002060009054906101000a900473ffffffffffffffffffffffffffffffffffffffff169050919050565b600061082b826109d0565b90508073ffffffffffffffffffffffffffffffffffffffff168373ffffffffffffffffffffffffffffffffffffffff160361089b576040517f08c379a00000000000000000000000000000000000000000000000000000000081526004016108929061289c565b60405180910390fd5b8073ffffffffffffffffffffffffffffffffffffffff166108ba6112ac565b73ffffffffffffffffffffffffffffffffffffffff1614806108e957506108e8816108e36112ac565b610e35565b5b610928576040517f08c379a000000000000000000000000000000000000000000000000000000000815260040161091f9061292e565b60405180910390fd5b61093283836112b4565b505050565b60095481565b61094e6109486112ac565b8261136d565b61098d576040517f08c379a0000000000000000000000000000000000000000000000000000000008152600401610984906129c0565b60405180910390fd5b610998838383611402565b505050565b6109b883838360405180602001604052806000815250610cc1565b505050565b600e60009054906101000a900460ff1681565b6000806109dc836116fb565b9050600073ffffffffffffffffffffffffffffffffffffffff168173ffffffffffffffffffffffffffffffffffffffff1603610a4d576040517f08c379a0000000000000000000000000000000000000000000000000000000008152600401610a4490612a2c565b60405180910390fd5b80915050919050565b60008073ffffffffffffffffffffffffffffffffffffffff168273ffffffffffffffffffffffffffffffffffffffff1603610ac6576040517f08c379a0000000000000000000000000000000000000000000000000000000008152600401610abd90612abe565b60405180910390fd5b600360008373ffffffffffffffffffffffffffffffffffffffff1673ffffffffffffffffffffffffffffffffffffffff168152602001908152602001600020549050919050565b610b15611738565b610b1f60006117b6565b565b610b29611738565b80600e60006101000a81548160ff02191690831515021790555050565b600b8054610b53906127f9565b80601f0160208091040260200160405190810160405280929190818152602001828054610b7f906127f9565b8015610bcc5780601f10610ba157610100808354040283529160200191610bcc565b820191906000526020600020905b815481529060010190602001808311610baf57829003601f168201915b505050505081565b600a5481565b6000610be4610be9565b905090565b6000600760009054906101000a900473ffffffffffffffffffffffffffffffffffffffff16905090565b606060018054610c22906127f9565b80601f0160208091040260200160405190810160405280929190818152602001828054610c4e906127f9565b8015610c9b5780601f10610c7057610100808354040283529160200191610c9b565b820191906000526020600020905b815481529060010190602001808311610c7e57829003601f168201915b5050505050905090565b610cb7610cb06112ac565b838361187c565b5050565b600c5481565b610cd2610ccc6112ac565b8361136d565b610d11576040517f08c379a0000000000000000000000000000000000000000000000000000000008152600401610d08906129c0565b60405180910390fd5b610d1d848484846119e8565b50505050565b6060610d2e82611261565b6000600660008481526020019081526020016000208054610d4e906127f9565b80601f0160208091040260200160405190810160405280929190818152602001828054610d7a906127f9565b8015610dc75780601f10610d9c57610100808354040283529160200191610dc7565b820191906000526020600020905b815481529060010190602001808311610daa57829003601f168201915b505050505090506000610dd8611a44565b90506000815103610ded578192505050610e30565b600082511115610e22578082604051602001610e0a929190612b1a565b60405160208183030381529060405292505050610e30565b610e2b84611a5b565b925050505b919050565b6000600560008473ffffffffffffffffffffffffffffffffffffffff1673ffffffffffffffffffffffffffffffffffffffff16815260200190815260200160002060008373ffffffffffffffffffffffffffffffffffffffff1673ffffffffffffffffffffffffffffffffffffffff16815260200190815260200160002060009054906101000a900460ff16905092915050565b610ed1611738565b600073ffffffffffffffffffffffffffffffffffffffff168173ffffffffffffffffffffffffffffffffffffffff1603610f40576040517f08c379a0000000000000000000000000000000000000000000000000000000008152600401610f3790612bb0565b60405180910390fd5b610f49816117b6565b50565b6001816000016000828254019250508190555050565b60007f80ac58cd000000000000000000000000000000000000000000000000000000007bffffffffffffffffffffffffffffffffffffffffffffffffffffffff1916827bffffffffffffffffffffffffffffffffffffffffffffffffffffffff1916148061102d57507f5b5e139f000000000000000000000000000000000000000000000000000000007bffffffffffffffffffffffffffffffffffffffffffffffffffffffff1916827bffffffffffffffffffffffffffffffffffffffffffffffffffffffff1916145b8061103d575061103c82611ac3565b5b9050919050565b600073ffffffffffffffffffffffffffffffffffffffff168273ffffffffffffffffffffffffffffffffffffffff16036110b3576040517f08c379a00000000000000000000000000000000000000000000000000000000081526004016110aa90612c1c565b60405180910390fd5b6110bc81611b2d565b156110fc576040517f08c379a00000000000000000000000000000000000000000000000000000000081526004016110f390612c88565b60405180910390fd5b61110a600083836001611b6e565b61111381611b2d565b15611153576040517f08c379a000000000000000000000000000000000000000000000000000000000815260040161114a90612c88565b60405180910390fd5b6001600360008473ffffffffffffffffffffffffffffffffffffffff1673ffffffffffffffffffffffffffffffffffffffff16815260200190815260200160002060008282540192505081905550816002600083815260200190815260200160002060006101000a81548173ffffffffffffffffffffffffffffffffffffffff021916908373ffffffffffffffffffffffffffffffffffffffff160217905550808273ffffffffffffffffffffffffffffffffffffffff16600073ffffffffffffffffffffffffffffffffffffffff167fddf252ad1be2c89b69c2b068fc378daa952ba7f163c4a11628f55a4df523b3ef60405160405180910390a461125d600083836001611b74565b5050565b61126a81611b2d565b6112a9576040517f08c379a00000000000000000000000000000000000000000000000000000000081526004016112a090612a2c565b60405180910390fd5b50565b600033905090565b816004600083815260200190815260200160002060006101000a81548173ffffffffffffffffffffffffffffffffffffffff021916908373ffffffffffffffffffffffffffffffffffffffff160217905550808273ffffffffffffffffffffffffffffffffffffffff16611327836109d0565b73ffffffffffffffffffffffffffffffffffffffff167f8c5be1e5ebec7d5bd14f71427d1e84f3dd0314c0f7b2291e5b200ac8c7c3b92560405160405180910390a45050565b600080611379836109d0565b90508073ffffffffffffffffffffffffffffffffffffffff168473ffffffffffffffffffffffffffffffffffffffff1614806113bb57506113ba8185610e35565b5b806113f957508373ffffffffffffffffffffffffffffffffffffffff166113e1846107da565b73ffffffffffffffffffffffffffffffffffffffff16145b91505092915050565b8273ffffffffffffffffffffffffffffffffffffffff16611422826109d0565b73ffffffffffffffffffffffffffffffffffffffff1614611478576040517f08c379a000000000000000000000000000000000000000000000000000000000815260040161146f90612d1a565b60405180910390fd5b600073ffffffffffffffffffffffffffffffffffffffff168273ffffffffffffffffffffffffffffffffffffffff16036114e7576040517f08c379a00000000000000000000000000000000000000000000000000000000081526004016114de90612dac565b60405180910390fd5b6114f48383836001611b6e565b8273ffffffffffffffffffffffffffffffffffffffff16611514826109d0565b73ffffffffffffffffffffffffffffffffffffffff161461156a576040517f08c379a000000000000000000000000000000000000000000000000000000000815260040161156190612d1a565b60405180910390fd5b6004600082815260200190815260200160002060006101000a81549073ffffffffffffffffffffffffffffffffffffffff02191690556001600360008573ffffffffffffffffffffffffffffffffffffffff1673ffffffffffffffffffffffffffffffffffffffff168152602001908152602001600020600082825403925050819055506001600360008473ffffffffffffffffffffffffffffffffffffffff1673ffffffffffffffffffffffffffffffffffffffff16815260200190815260200160002060008282540192505081905550816002600083815260200190815260200160002060006101000a81548173ffffffffffffffffffffffffffffffffffffffff021916908373ffffffffffffffffffffffffffffffffffffffff160217905550808273ffffffffffffffffffffffffffffffffffffffff168473ffffffffffffffffffffffffffffffffffffffff167fddf252ad1be2c89b69c2b068fc378daa952ba7f163c4a11628f55a4df523b3ef60405160405180910390a46116f68383836001611b74565b505050565b60006002600083815260200190815260200160002060009054906101000a900473ffffffffffffffffffffffffffffffffffffffff169050919050565b6117406112ac565b73ffffffffffffffffffffffffffffffffffffffff1661175e610be9565b73ffffffffffffffffffffffffffffffffffffffff16146117b4576040517f08c379a00000000000000000000000000000000000000000000000000000000081526004016117ab90612e18565b60405180910390fd5b565b6000600760009054906101000a900473ffffffffffffffffffffffffffffffffffffffff16905081600760006101000a81548173ffffffffffffffffffffffffffffffffffffffff021916908373ffffffffffffffffffffffffffffffffffffffff1602179055508173ffffffffffffffffffffffffffffffffffffffff168173ffffffffffffffffffffffffffffffffffffffff167f8be0079c531659141344cd1fd0a4f28419497f9722a3daafe3b4186f6b6457e060405160405180910390a35050565b8173ffffffffffffffffffffffffffffffffffffffff168373ffffffffffffffffffffffffffffffffffffffff16036118ea576040517f08c379a00000000000000000000000000000000000000000000000000000000081526004016118e190612e84565b60405180910390fd5b80600560008573ffffffffffffffffffffffffffffffffffffffff1673ffffffffffffffffffffffffffffffffffffffff16815260200190815260200160002060008473ffffffffffffffffffffffffffffffffffffffff1673ffffffffffffffffffffffffffffffffffffffff16815260200190815260200160002060006101000a81548160ff0219169083151502179055508173ffffffffffffffffffffffffffffffffffffffff168373ffffffffffffffffffffffffffffffffffffffff167f17307eab39ab6107e8899845ad3d59bd9653f200f220920489ca2b5937696c31836040516119db9190611ff9565b60405180910390a3505050565b6119f3848484611402565b6119ff84848484611b7a565b611a3e576040517f08c379a0000000000000000000000000000000000000000000000000000000008152600401611a3590612f16565b60405180910390fd5b50505050565b606060405180602001604052806000815250905090565b6060611a6682611261565b6000611a70611a44565b90506000815111611a905760405180602001604052806000815250611abb565b80611a9a84611d01565b604051602001611aab929190612b1a565b6040516020818303038152906040525b915050919050565b60007f01ffc9a7000000000000000000000000000000000000000000000000000000007bffffffffffffffffffffffffffffffffffffffffffffffffffffffff1916827bffffffffffffffffffffffffffffffffffffffffffffffffffffffff1916149050919050565b60008073ffffffffffffffffffffffffffffffffffffffff16611b4f836116fb565b73ffffffffffffffffffffffffffffffffffffffff1614159050919050565b50505050565b50505050565b6000611b9b8473ffffffffffffffffffffffffffffffffffffffff16611dcf565b15611cf4578373ffffffffffffffffffffffffffffffffffffffff1663150b7a02611bc46112ac565b8786866040518563ffffffff1660e01b8152600401611be69493929190612f8b565b6020604051808303816000875af1925050508015611c2257506040513d601f19601f82011682018060405250810190611c1f9190612fec565b60015b611ca4573d8060008114611c52576040519150601f19603f3d011682016040523d82523d6000602084013e611c57565b606091505b506000815103611c9c576040517f08c379a0000000000000000000000000000000000000000000000000000000008152600401611c9390612f16565b60405180910390fd5b805181602001fd5b63150b7a0260e01b7bffffffffffffffffffffffffffffffffffffffffffffffffffffffff1916817bffffffffffffffffffffffffffffffffffffffffffffffffffffffff191614915050611cf9565b600190505b949350505050565b606060006001611d1084611df2565b01905060008167ffffffffffffffff811115611d2f57611d2e6123a4565b5b6040519080825280601f01601f191660200182016040528015611d615781602001600182028036833780820191505090505b509050600082602001820190505b600115611dc4578080600190039150507f3031323334353637383961626364656600000000000000000000000000000000600a86061a8153600a8581611db857611db7613019565b5b04945060008503611d6f575b819350505050919050565b6000808273ffffffffffffffffffffffffffffffffffffffff163b119050919050565b600080600090507a184f03e93ff9f4daa797ed6e38ed64bf6a1f0100000000000000008310611e50577a184f03e93ff9f4daa797ed6e38ed64bf6a1f0100000000000000008381611e4657611e45613019565b5b0492506040810190505b6d04ee2d6d415b85acef81000000008310611e8d576d04ee2d6d415b85acef81000000008381611e8357611e82613019565b5b0492506020810190505b662386f26fc100008310611ebc57662386f26fc100008381611eb257611eb1613019565b5b0492506010810190505b6305f5e1008310611ee5576305f5e1008381611edb57611eda613019565b5b0492506008810190505b6127108310611f0a576127108381611f0057611eff613019565b5b0492506004810190505b60648310611f2d5760648381611f2357611f22613019565b5b0492506002810190505b600a8310611f3c576001810190505b80915050919050565b6000604051905090565b600080fd5b600080fd5b60007fffffffff0000000000000000000000000000000000000000000000000000000082169050919050565b611f8e81611f59565b8114611f9957600080fd5b50565b600081359050611fab81611f85565b92915050565b600060208284031215611fc757611fc6611f4f565b5b6000611fd584828501611f9c565b91505092915050565b60008115159050919050565b611ff381611fde565b82525050565b600060208201905061200e6000830184611fea565b92915050565b600060ff82169050919050565b61202a81612014565b811461203557600080fd5b50565b60008135905061204781612021565b92915050565b60006020828403121561206357612062611f4f565b5b600061207184828501612038565b91505092915050565b600081519050919050565b600082825260208201905092915050565b60005b838110156120b4578082015181840152602081019050612099565b60008484015250505050565b6000601f19601f8301169050919050565b60006120dc8261207a565b6120e68185612085565b93506120f6818560208601612096565b6120ff816120c0565b840191505092915050565b6000602082019050818103600083015261212481846120d1565b905092915050565b6000819050919050565b61213f8161212c565b811461214a57600080fd5b50565b60008135905061215c81612136565b92915050565b60006020828403121561217857612177611f4f565b5b60006121868482850161214d565b91505092915050565b600073ffffffffffffffffffffffffffffffffffffffff82169050919050565b60006121ba8261218f565b9050919050565b6121ca816121af565b82525050565b60006020820190506121e560008301846121c1565b92915050565b6121f4816121af565b81146121ff57600080fd5b50565b600081359050612211816121eb565b92915050565b6000806040838503121561222e5761222d611f4f565b5b600061223c85828601612202565b925050602061224d8582860161214d565b9150509250929050565b6122608161212c565b82525050565b600060208201905061227b6000830184612257565b92915050565b60008060006060848603121561229a57612299611f4f565b5b60006122a886828701612202565b93505060206122b986828701612202565b92505060406122ca8682870161214d565b9150509250925092565b6000602082840312156122ea576122e9611f4f565b5b60006122f884828501612202565b91505092915050565b61230a81611fde565b811461231557600080fd5b50565b60008135905061232781612301565b92915050565b60006020828403121561234357612342611f4f565b5b600061235184828501612318565b91505092915050565b6000806040838503121561237157612370611f4f565b5b600061237f85828601612202565b925050602061239085828601612318565b9150509250929050565b600080fd5b600080fd5b7f4e487b7100000000000000000000000000000000000000000000000000000000600052604160045260246000fd5b6123dc826120c0565b810181811067ffffffffffffffff821117156123fb576123fa6123a4565b5b80604052505050565b600061240e611f45565b905061241a82826123d3565b919050565b600067ffffffffffffffff82111561243a576124396123a4565b5b612443826120c0565b9050602081019050919050565b82818337600083830152505050565b600061247261246d8461241f565b612404565b90508281526020810184848401111561248e5761248d61239f565b5b612499848285612450565b509392505050565b600082601f8301126124b6576124b561239a565b5b81356124c684826020860161245f565b91505092915050565b600080600080608085870312156124e9576124e8611f4f565b5b60006124f787828801612202565b945050602061250887828801612202565b93505060406125198782880161214d565b925050606085013567ffffffffffffffff81111561253a57612539611f54565b5b612546878288016124a1565b91505092959194509250565b6000806040838503121561256957612568611f4f565b5b600061257785828601612202565b925050602061258885828601612202565b9150509250929050565b7f4556454e545f5449434b4554535f53414c455f49535f43555252454e544c595f60008201527f5041555345440000000000000000000000000000000000000000000000000000602082015250565b60006125ee602683612085565b91506125f982612592565b604082019050919050565b6000602082019050818103600083015261261d816125e1565b9050919050565b7f4e487b7100000000000000000000000000000000000000000000000000000000600052601160045260246000fd5b600061265e8261212c565b91506126698361212c565b92508282026126778161212c565b9150828204841483151761268e5761268d612624565b5b5092915050565b7f4554485f414d4f554e545f494e56414c49440000000000000000000000000000600082015250565b60006126cb601283612085565b91506126d682612695565b602082019050919050565b600060208201905081810360008301526126fa816126be565b9050919050565b7f5449434b4554535f414d4f554e545f4558434545444544000000000000000000600082015250565b6000612737601783612085565b915061274282612701565b602082019050919050565b600060208201905081810360008301526127668161272a565b9050919050565b60006127788261212c565b91506127838361212c565b925082820390508181111561279b5761279a612624565b5b92915050565b60006127ac82612014565b915060ff82036127bf576127be612624565b5b600182019050919050565b7f4e487b7100000000000000000000000000000000000000000000000000000000600052602260045260246000fd5b6000600282049050600182168061281157607f821691505b602082108103612824576128236127ca565b5b50919050565b7f4552433732313a20617070726f76616c20746f2063757272656e74206f776e6560008201527f7200000000000000000000000000000000000000000000000000000000000000602082015250565b6000612886602183612085565b91506128918261282a565b604082019050919050565b600060208201905081810360008301526128b581612879565b9050919050565b7f4552433732313a20617070726f76652063616c6c6572206973206e6f7420746f60008201527f6b656e206f776e6572206f7220617070726f76656420666f7220616c6c000000602082015250565b6000612918603d83612085565b9150612923826128bc565b604082019050919050565b600060208201905081810360008301526129478161290b565b9050919050565b7f4552433732313a2063616c6c6572206973206e6f7420746f6b656e206f776e6560008201527f72206f7220617070726f76656400000000000000000000000000000000000000602082015250565b60006129aa602d83612085565b91506129b58261294e565b604082019050919050565b600060208201905081810360008301526129d98161299d565b9050919050565b7f4552433732313a20696e76616c696420746f6b656e2049440000000000000000600082015250565b6000612a16601883612085565b9150612a21826129e0565b602082019050919050565b60006020820190508181036000830152612a4581612a09565b9050919050565b7f4552433732313a2061646472657373207a65726f206973206e6f74206120766160008201527f6c6964206f776e65720000000000000000000000000000000000000000000000602082015250565b6000612aa8602983612085565b9150612ab382612a4c565b604082019050919050565b60006020820190508181036000830152612ad781612a9b565b9050919050565b600081905092915050565b6000612af48261207a565b612afe8185612ade565b9350612b0e818560208601612096565b80840191505092915050565b6000612b268285612ae9565b9150612b328284612ae9565b91508190509392505050565b7f4f776e61626c653a206e6577206f776e657220697320746865207a65726f206160008201527f6464726573730000000000000000000000000000000000000000000000000000602082015250565b6000612b9a602683612085565b9150612ba582612b3e565b604082019050919050565b60006020820190508181036000830152612bc981612b8d565b9050919050565b7f4552433732313a206d696e7420746f20746865207a65726f2061646472657373600082015250565b6000612c06602083612085565b9150612c1182612bd0565b602082019050919050565b60006020820190508181036000830152612c3581612bf9565b9050919050565b7f4552433732313a20746f6b656e20616c7265616479206d696e74656400000000600082015250565b6000612c72601c83612085565b9150612c7d82612c3c565b602082019050919050565b60006020820190508181036000830152612ca181612c65565b9050919050565b7f4552433732313a207472616e736665722066726f6d20696e636f72726563742060008201527f6f776e6572000000000000000000000000000000000000000000000000000000602082015250565b6000612d04602583612085565b9150612d0f82612ca8565b604082019050919050565b60006020820190508181036000830152612d3381612cf7565b9050919050565b7f4552433732313a207472616e7366657220746f20746865207a65726f2061646460008201527f7265737300000000000000000000000000000000000000000000000000000000602082015250565b6000612d96602483612085565b9150612da182612d3a565b604082019050919050565b60006020820190508181036000830152612dc581612d89565b9050919050565b7f4f776e61626c653a2063616c6c6572206973206e6f7420746865206f776e6572600082015250565b6000612e02602083612085565b9150612e0d82612dcc565b602082019050919050565b60006020820190508181036000830152612e3181612df5565b9050919050565b7f4552433732313a20617070726f766520746f2063616c6c657200000000000000600082015250565b6000612e6e601983612085565b9150612e7982612e38565b602082019050919050565b60006020820190508181036000830152612e9d81612e61565b9050919050565b7f4552433732313a207472616e7366657220746f206e6f6e20455243373231526560008201527f63656976657220696d706c656d656e7465720000000000000000000000000000602082015250565b6000612f00603283612085565b9150612f0b82612ea4565b604082019050919050565b60006020820190508181036000830152612f2f81612ef3565b9050919050565b600081519050919050565b600082825260208201905092915050565b6000612f5d82612f36565b612f678185612f41565b9350612f77818560208601612096565b612f80816120c0565b840191505092915050565b6000608082019050612fa060008301876121c1565b612fad60208301866121c1565b612fba6040830185612257565b8181036060830152612fcc8184612f52565b905095945050505050565b600081519050612fe681611f85565b92915050565b60006020828403121561300257613001611f4f565b5b600061301084828501612fd7565b91505092915050565b7f4e487b7100000000000000000000000000000000000000000000000000000000600052601260045260246000fdfea26469706673582212209b57d612606475afa67f62973fc24a935483d9186ee1fb3a7ffbd4cf1a2b60ba64736f6c63430008120033a2646970667358221220bc723b4f16499932796f707af23bcb8348d11d1e5496949223d2c0151ed8f27664736f6c63430008120033608060405234801561001057600080fd5b5073694aa1769357215de4fac081bf1f309adc3253066000806101000a81548173ffffffffffffffffffffffffffffffffffffffff021916908373ffffffffffffffffffffffffffffffffffffffff16021790555073694aa1769357215de4fac081bf1f309adc325306600160006101000a81548173ffffffffffffffffffffffffffffffffffffffff021916908373ffffffffffffffffffffffffffffffffffffffff16021790555073694aa1769357215de4fac081bf1f309adc325306600260006101000a81548173ffffffffffffffffffffffffffffffffffffffff021916908373ffffffffffffffffffffffffffffffffffffffff16021790555061048d8061011e6000396000f3fe608060405234801561001057600080fd5b506004361061002b5760003560e01c806370a429c514610030575b600080fd5b61004a60048036038101906100459190610245565b610060565b604051610057919061029e565b60405180910390f35b600080600083036100935760008054906101000a900473ffffffffffffffffffffffffffffffffffffffff1690506100f5565b600183036100c557600160009054906101000a900473ffffffffffffffffffffffffffffffffffffffff1690506100f4565b600283036100f357600260009054906101000a900473ffffffffffffffffffffffffffffffffffffffff1690505b5b5b6000808273ffffffffffffffffffffffffffffffffffffffff16639a6fc8f5876040518263ffffffff1660e01b815260040161013191906102c8565b60a060405180830381865afa15801561014e573d6000803e3d6000fd5b505050506040513d601f19601f820116820180604052508101906101729190610339565b50935050925050600081116101bc576040517f08c379a00000000000000000000000000000000000000000000000000000000081526004016101b390610437565b60405180910390fd5b81935050505092915050565b600080fd5b600069ffffffffffffffffffff82169050919050565b6101ec816101cd565b81146101f757600080fd5b50565b600081359050610209816101e3565b92915050565b6000819050919050565b6102228161020f565b811461022d57600080fd5b50565b60008135905061023f81610219565b92915050565b6000806040838503121561025c5761025b6101c8565b5b600061026a858286016101fa565b925050602061027b85828601610230565b9150509250929050565b6000819050919050565b61029881610285565b82525050565b60006020820190506102b3600083018461028f565b92915050565b6102c2816101cd565b82525050565b60006020820190506102dd60008301846102b9565b92915050565b6000815190506102f2816101e3565b92915050565b61030181610285565b811461030c57600080fd5b50565b60008151905061031e816102f8565b92915050565b60008151905061033381610219565b92915050565b600080600080600060a08688031215610355576103546101c8565b5b6000610363888289016102e3565b95505060206103748882890161030f565b945050604061038588828901610324565b935050606061039688828901610324565b92505060806103a7888289016102e3565b9150509295509295909350565b600082825260208201905092915050565b7f50524943455f464545445f5f524f554e445f49535f4e4f545f434f4d504c455460008201527f4500000000000000000000000000000000000000000000000000000000000000602082015250565b60006104216021836103b4565b915061042c826103c5565b604082019050919050565b6000602082019050818103600083015261045081610414565b905091905056fea2646970667358221220ef3342d6e78d56f7dc06e2833f582486384dcdfec6e113620abe6e18c5b7698264736f6c63430008120033",
  "linkReferences": {},
  "deployedLinkReferences": {}
}