{
  "_format": "hh-sol-artifact-1",
  "contractName": "AssetsMonitoring",
  "sourceName": "contracts/AssetsMonitoring.sol",
  "abi": [
    {
      "inputs": [],
      "stateMutability": "nonpayable",
      "type": "constructor"
    },
    {
      "inputs": [
        {
          "internalType": "uint80",
          "name": "roundId",
          "type": "uint80"
        },
        {
          "internalType": "uint256",
          "name": "tokenId",
          "type": "uint256"
        }
      ],
      "name": "getRoundPriceForToken",
      "outputs": [
        {
          "internalType": "int256",
          "name": "",
          "type": "int256"
        }
      ],
      "stateMutability": "view",
      "type": "function"
    }
  ],
  "bytecode": "0x608060405234801561001057600080fd5b5073694aa1769357215de4fac081bf1f309adc3253066000806101000a81548173ffffffffffffffffffffffffffffffffffffffff021916908373ffffffffffffffffffffffffffffffffffffffff16021790555073694aa1769357215de4fac081bf1f309adc325306600160006101000a81548173ffffffffffffffffffffffffffffffffffffffff021916908373ffffffffffffffffffffffffffffffffffffffff16021790555073694aa1769357215de4fac081bf1f309adc325306600260006101000a81548173ffffffffffffffffffffffffffffffffffffffff021916908373ffffffffffffffffffffffffffffffffffffffff16021790555061048d8061011e6000396000f3fe608060405234801561001057600080fd5b506004361061002b5760003560e01c806370a429c514610030575b600080fd5b61004a60048036038101906100459190610245565b610060565b604051610057919061029e565b60405180910390f35b600080600083036100935760008054906101000a900473ffffffffffffffffffffffffffffffffffffffff1690506100f5565b600183036100c557600160009054906101000a900473ffffffffffffffffffffffffffffffffffffffff1690506100f4565b600283036100f357600260009054906101000a900473ffffffffffffffffffffffffffffffffffffffff1690505b5b5b6000808273ffffffffffffffffffffffffffffffffffffffff16639a6fc8f5876040518263ffffffff1660e01b815260040161013191906102c8565b60a060405180830381865afa15801561014e573d6000803e3d6000fd5b505050506040513d601f19601f820116820180604052508101906101729190610339565b50935050925050600081116101bc576040517f08c379a00000000000000000000000000000000000000000000000000000000081526004016101b390610437565b60405180910390fd5b81935050505092915050565b600080fd5b600069ffffffffffffffffffff82169050919050565b6101ec816101cd565b81146101f757600080fd5b50565b600081359050610209816101e3565b92915050565b6000819050919050565b6102228161020f565b811461022d57600080fd5b50565b60008135905061023f81610219565b92915050565b6000806040838503121561025c5761025b6101c8565b5b600061026a858286016101fa565b925050602061027b85828601610230565b9150509250929050565b6000819050919050565b61029881610285565b82525050565b60006020820190506102b3600083018461028f565b92915050565b6102c2816101cd565b82525050565b60006020820190506102dd60008301846102b9565b92915050565b6000815190506102f2816101e3565b92915050565b61030181610285565b811461030c57600080fd5b50565b60008151905061031e816102f8565b92915050565b60008151905061033381610219565b92915050565b600080600080600060a08688031215610355576103546101c8565b5b6000610363888289016102e3565b95505060206103748882890161030f565b945050604061038588828901610324565b935050606061039688828901610324565b92505060806103a7888289016102e3565b9150509295509295909350565b600082825260208201905092915050565b7f50524943455f464545445f5f524f554e445f49535f4e4f545f434f4d504c455460008201527f4500000000000000000000000000000000000000000000000000000000000000602082015250565b60006104216021836103b4565b915061042c826103c5565b604082019050919050565b6000602082019050818103600083015261045081610414565b905091905056fea2646970667358221220ef3342d6e78d56f7dc06e2833f582486384dcdfec6e113620abe6e18c5b7698264736f6c63430008120033",
  "linkReferences": {},
  "deployedLinkReferences": {}
}